:1000000049C0000081C1000062C0000060C0000063
:100010005EC000005CC000005AC0000058C0000074
:1000200056C0000054C0000052C0000050C0000084
:100030004EC000004CC000004AC0000048C0000094
:1000400009C1000044C0000042C0000040C00000E0
:100050003EC000003CC000003AC0000038C00000B4
:1000600036C0000034C0000032C0000030C00000C4
:100070002EC000002CC000002AC0000028C00000D4
:1000800026C0000024C0000022C0000020C00000E4
:100090001EC0000011241FBECFEFD0E1DEBFCDBFD8
:1000A00011E0A0E0B1E0EEE4F3E000E00BBF02C03D
:1000B00007900D92A231B107D9F721E0A2E1B1E09A
:1000C00001C01D92A731B207E1F781D03EC198CFA0
:1000D0008FEF81B982B98FE080BB81BB1AB881E014
:1000E0008BB98CEF87B918B808958DE084BD8DE485
:1000F00087BD82E080936E00089582E0809369005E
:1001000081E08DBB089588B1886088B982E08A95C6
:10011000F1F700C088B1877F88B90895CF93DF9346
:100120002FE788E391E0215080409040E1F700C044
:10013000000080E388B9E7DF2AE62A95F1F700C0DE
:10014000D0E2D8B9E0DFC0E8C8B9DDDF8AE68A9539
:10015000F1F700C0D8B9D7DFC8B9D5DF9AE69A95CC
:10016000F1F700C018B8CFDF80EF88B9CCDF2AE6FE
:100170002A95F1F700C018B8C6DF80E188B9C3DF5F
:100180008FE99FE00197F1F700C0000018B8BBDFCE
:1001900080E688B9B8DF8FE19EE40197F1F700C0EF
:1001A0000000DF91CF910895CF93C82F2AE62A95BA
:1001B000F1F700C0807F846088B9A5DF20E1C29F8D
:1001C000C0011124846088B99EDFCF910895CF9338
:1001D000DF93CDB7DEB762970FB6F894DEBF0FBEE0
:1001E000CDBF76DF82DF89DF99DF789480911601B9
:1001F000813029F491B3892781BB10921601809137
:100200001501813031F491B382E0892781BB1092CE
:10021000150180911401813049F782E1E0E0F1E0BD
:10022000DE01119601900D928A95E1F710E002C06F
:10023000BBDF1F5FE1E0F0E0EC0FFD1FE10FF11D00
:1002400080818111F5CF91B384E0892781BB109221
:100250001401CCCF1F920F920FB60F9211242F933F
:100260003F934F935F936F937F938F939F93AF933E
:10027000BF9340911201509113014F5F5F4F509314
:1002800013014093120181E0809316019A01ADECB5
:10029000BCEC4CD0969587959695879596958795C5
:1002A0009C01220F331F880F991F880F991F880FF9
:1002B000991F820F931F4817590719F481E0809303
:1002C00015019A0136952795ABE7B4E12FD09695A5
:1002D000879562E3689F9001699F300D1124421752
:1002E000530719F481E080931401BF91AF919F915E
:1002F0008F917F916F915F914F913F912F910F90CF
:100300000FBE0F901F9018951F920F920FB60F926D
:1003100011248F939F9392B181E0892782B99F9195
:100320008F910F900FBE0F901F901895A29FB00154
:10033000B39FC001A39F700D811D1124911DB29F19
:0E034000700D811D1124911D0895F894FFCFBA
:10034E00737A6F7665672061206B696A656C7A6F68
:02035E006E002F
:00000001FF
