:1000000049C0000011C3000062C0000060C00000D1
:100010005EC000005CC000005AC0000058C0000074
:1000200056C0000054C0000052C0000050C0000084
:100030004EC000004CC000004AC0000048C0000094
:1000400083C2000044C000004AC3000040C000005A
:100050003EC0000017C300003AC0000038C00000D6
:1000600036C00000F9C2000032C0000030C00000FD
:100070002EC000002CC000002AC0000028C00000D4
:1000800026C0000024C0000022C0000020C00000E4
:100090001EC0000011241FBECFEFD0E1DEBFCDBFD8
:1000A00011E0A0E0B1E0EEE0FEE000E00BBF02C036
:1000B00007900D92AE30B107D9F721E0AEE0B1E084
:1000C00001C01D92A832B207E1F799D19EC698CF20
:1000D00082E08093D80090E29093DB0091E09093CF
:1000E000DE008093E20084E08093E30083E180936C
:1000F000E40080E020C0982F9295907F9093ED00CF
:100100001092EE001092EF001092F0001092F100A9
:100110001092F2001092F3001092F4001092F50089
:100120001092F6001092F7001092F9001092F80069
:100130001092FA008F5F8F30F0F2EBEDF0E08081EB
:100140008068808308950F938295807F8093ED006F
:100150001092EE008FEF8093F4008093F50080936F
:10016000F6008093F700222359F1842F880F880F1F
:10017000880F8093F000DB01CA01689414F8B695EB
:10018000A795979587951694D1F78093F100DB0199
:10019000CA01072E7DE0B695A795979587957A9524
:1001A000D1F7702D8093F200032E35E17695679597
:1001B000579547953A95D1F7302D4093F30010C0ED
:1001C000842F8295880F807E8093F200689412F8C5
:1001D00076956795579547951694D1F74093F30018
:1001E00080E1289F90011124202B20682093EF00AC
:1001F0000F910895EF92FF920F938295807F8093E5
:10020000ED001092EE00222359F1842F880F880F01
:10021000880F8093F000DB01CA01689414F8B6954A
:10022000A795979587951694D1F78093F100DB01F8
:10023000CA01072E7DE0B695A795979587957A9583
:10024000D1F7702D8093F200032E35E176956795F6
:10025000579547953A95D1F7302D4093F30010C04C
:10026000842F8295880F807E8093F200689412F824
:1002700076956795579547951694D1F74093F30077
:10028000EFEEF0E0808190E1299F90011124282B6E
:10029000208380E007C0F701E80FF11D9081909363
:1002A000FA008F5F8017B8F300640093EF000F919E
:1002B000FF90EF90089588B1886088B982E08A95B0
:1002C000F1F700C088B1877F88B90895CF93DF9395
:1002D0002FE788E391E0215080409040E1F700C093
:1002E000000080E388B9E7DF2AE62A95F1F700C02D
:1002F000D0E2D8B9E0DFC0E8C8B9DDDF8AE68A9588
:10030000F1F700C0D8B9D7DFC8B9D5DF9AE69A951A
:10031000F1F700C018B8CFDF80EF88B9CCDF2AE64C
:100320002A95F1F700C018B8C6DF80E188B9C3DFAD
:100330008FE99FE00197F1F700C0000018B8BBDF1C
:1003400080E688B9B8DF8FE19EE40197F1F700C03D
:100350000000DF91CF910895CF93C82F2AE62A9508
:10036000F1F700C0807F846088B9A5DF20E1C29FDB
:10037000C0011124846088B99EDFCF910895CF9386
:100380002AE62A95F1F700C0833460F4C82FC068CC
:10039000807F806888B98FDF20E1C29FC00111246F
:1003A00088B989DFCF9108958AE68A95F1F700C070
:1003B00018B881DF80E188B97EDF8FE99FE001977F
:1003C000F1F700C000000895CF93DF93EC0102C065
:1003D0002196C2DF88818111FBCFDF91CF910895F3
:1003E0008EE080BB81BB14B881E085B99FEF91B9E5
:1003F00012B81AB88BB98CEF87B918B80895CF9393
:10040000DF93CDB7DEB7EA970FB6F894DEBF0FBE25
:10041000CDBFE6DFB1D1BAD1BFD158DF83E390E0E1
:10042000C3D156DE08E020E041E050E060E070E03B
:1004300080E089DE789480911501882331F1189944
:100440000AC080911101811106C082B191E0892713
:1004500082B990931101189B06C0809111018130DF
:1004600011F41092110180911001803518F4865F0B
:100470008093100191B382E0892781BBEAE7F0E025
:1004800080818064808310921501809114018823FB
:1004900009F444C020910E0130910F01A8E8B3E1A6
:1004A000B6D1DC01CB01072E7AE0B695A7959795DA
:1004B00087957A95D1F7702D68EE73E095D19F936B
:1004C0008F937F936F9380E091E09F938F938E0142
:1004D0000F5F1F4F1F930F93BDD1C80179D18AE0E1
:1004E00091E076D180E04BDFC8016EDF90910E0184
:1004F00080910F019BAB8CABCE01C3967C0102E0D7
:1005000020E04FEF57E060E070E082E073DE109291
:1005100014010FB6F894DEBF0FBECDBF809113015A
:10052000882331F091B384E0892781BB10921301B5
:1005300080911201882309F47ECF91B388E0892746
:1005400081BB1092120177CF1F920F920FB60F92BC
:1005500011242F933F934F935F936F937F938F93C8
:100560009F93AF93BF9340911601509117014F5F36
:100570005F4F509317014093160181E0809315015E
:100580009A01ADECBCEC43D19695879596958795ED
:10059000969587959C01220F331F880F991F880F0E
:1005A000991F880F991F820F931F4817590719F435
:1005B00081E0809314019A0136952795ABE7B4E169
:1005C00026D19695879562E3689F9001699F300DCB
:1005D00011244217530719F481E0809313019A0103
:1005E0003695279536952795ABE7B4E110D19695CA
:1005F000879564E6689F9001699F300D112442172A
:10060000530719F481E080931201BF91AF919F913C
:100610008F917F916F915F914F913F912F910F90AB
:100620000FBE0F901F9018951F920F920FB60F924A
:1006300011248F939F9380911001803531F492B1F2
:1006400082E0892782B9109210019F918F910F90BB
:100650000FBE0F901F9018951F920F920FB60F921A
:1006600011248F939F9380917800909179009093BB
:100670000F0180930E019F918F910F900FBE0F90ED
:100680001F9018951F920F920FB60F9211240BB660
:100690000F922F933F934F935F936F937F938F931B
:1006A0009F93AF93BF93EF93FF938091C6008F37D3
:1006B00011F47ADE01C050DEFF91EF91BF91AF914E
:1006C0009F918F917F916F915F914F913F912F916A
:1006D0000F900BBE0F900FBE0F901F9018951F929A
:1006E0000F920FB60F9211240BB60F920F932F9308
:1006F0003F934F935F936F937F938F939F93AF93AA
:10070000BF93EF93FF9382B1805882B91092ED00AE
:100710008091EE0085FF1CC02091EF002F7080E0DB
:1007200008C0E82FF0E09091FA00E05EFE4F908361
:100730008F5F8217B0F3EEEEF0E080818F7D8083D3
:1007400008E020E041E050E060E070E080E0FBDCA9
:10075000FF91EF91BF91AF919F918F917F916F9199
:100760005F914F913F912F910F910F900BBE0F9082
:100770000FBE0F901F9018958DE084BD8DE487BD4E
:10078000EEE6F0E0808182608083089582E08093CD
:10079000690081E08DBB089510927C0088EC809305
:1007A0007A0010927B0008959093C5008093C40056
:1007B0001092C00086E08093C20088E98093C10057
:1007C00008959091C00095FFFCCF8093C6000895D6
:1007D000CF93DF93EC0102C02196F3DF8881811172
:1007E000FBCFDF91CF91089597FB072E16F400946D
:1007F00006D077FD08D01AD007FC05D03EF49095BE
:1008000081959F4F0895709561957F4F0895A29FA0
:10081000B001B39FC001A39F700D811D1124911DD4
:10082000B29F700D811D1124911D0895AA1BBB1B41
:1008300051E107C0AA1FBB1FA617B70710F0A61BE0
:10084000B70B881F991F5A95A9F780959095BC0101
:10085000CD0108950F931F93CF93DF93CDB7DEB7EC
:100860002E970FB6F894DEBF0FBECDBF0D891E893F
:1008700086E08C831A8309838FEF9FE79E838D83A5
:10088000AE01475E5F4F6F89788DCE01019610D023
:10089000EF81F885E00FF11F10822E960FB6F894C5
:1008A000DEBF0FBECDBFDF91CF911F910F91089595
:1008B0002F923F924F925F926F927F928F929F9270
:1008C000AF92BF92CF92DF92EF92FF920F931F935E
:1008D000CF93DF93CDB7DEB72B970FB6F894DEBF7B
:1008E0000FBECDBF6C017B018A01FC01178216820D
:1008F000838181FFBFC1CE0101963C01F601938146
:10090000F70193FD859193FF81917F01882309F47D
:10091000ADC1853239F493FD859193FF81917F01BB
:10092000853221F4B60190E0D6D1E8CF912C212C6C
:10093000312CFFE1F315D8F08B3279F038F48032A6
:1009400079F08332A1F4232D20611DC08D3261F036
:10095000803369F4232D216016C0832D8260382EE8
:10096000E32DE4603E2E2AC0F32DF8601DC037FC55
:100970002DC020ED280F2A3040F08E32B9F436FC1D
:1009800075C1232D2064322E19C036FE06C08AE0C0
:10099000989E200D1124922E11C0EAE02E9E200D6B
:1009A0001124222EF32DF0623F2E08C08C3621F444
:1009B000832D8068382E02C0883641F4F70193FDFC
:1009C000859193FF81917F018111B3CF982F9F7DF6
:1009D0009554933028F40C5F1F4F9FE399830DC00B
:1009E000833631F0833771F0833509F055C020C06C
:1009F000F801808189830E5F1F4F88248394912C96
:100A0000530112C02801F2E04F0E511CF801A080E2
:100A1000B18036FE03C0692D70E002C06FEF7FEF3A
:100A2000C5014ED14C018201F32DFF773F2E15C039
:100A3000280122E0420E511CF801A080B18036FE50
:100A400003C0692D70E002C06FEF7FEFC5012DD1AB
:100A50004C01F32DF0683F2E820133FC19C0822D2A
:100A600090E088169906A0F4B60180E290E033D1B8
:100A70002A94F5CFF50137FC859137FE81915F010E
:100A8000B60190E028D121102A9421E0821A910821
:100A90008114910479F7E1C0843611F0893639F573
:100AA000F80137FE07C060817181828193810C5FFC
:100AB0001F4F08C060817181072E000C880B990BB5
:100AC0000E5F1F4FF32DFF763F2E97FF09C09095C5
:100AD0008095709561957F4F8F4F9F4FF0683F2EA7
:100AE0002AE030E0A30133D1882E861844C0853730
:100AF00031F4232D2F7EB22E2AE030E025C0932D35
:100B0000997FB92E8F36C1F018F4883579F0AEC0D0
:100B1000803719F0883721F0A9C0E92FE061BE2E97
:100B2000B4FE0DC0FB2DF460BF2E09C034FE0AC018
:100B3000292F2660B22E06C028E030E005C020E153
:100B400030E002C020E132E0F801B7FE07C060816A
:100B50007181828193810C5F1F4F06C0608171811A
:100B600080E090E00E5F1F4FA301F1D0882E861821
:100B7000FB2DFF773F2E36FE0DC0232D2E7FA22E9C
:100B8000891458F434FE0BC032FC09C0832D8E7ECC
:100B9000A82E05C0B82CA32C03C0B82C01C0B92CBA
:100BA000A4FE0FC0FE01E80DF11D8081803321F409
:100BB0009A2D997EA92E09C0A2FE06C0B394B394C3
:100BC00004C08A2D867809F0B394A3FC10C0A0FE5F
:100BD00006C0B21480F4280C922C9B180DC0B214DD
:100BE00058F4B60180E290E076D0B394F8CFB21416
:100BF00018F42B1802C0982C212CA4FE0FC0B601AB
:100C000080E390E068D0A2FE16C0A1FC03C088E794
:100C100090E002C088E590E0B6010CC08A2D86788D
:100C200051F0A1FE02C08BE201C080E2A7FC8DE280
:100C3000B60190E050D0891430F4B60180E390E022
:100C40004AD09A94F8CF8A94F301E80DF11D80817F
:100C5000B60190E040D08110F6CF222009F44ECEAC
:100C6000B60180E290E037D02A94F7CFF601868172
:100C7000978102C08FEF9FEF2B960FB6F894DEBFDF
:100C80000FBECDBFDF91CF911F910F91FF90EF90DD
:100C9000DF90CF90BF90AF909F908F907F906F909C
:100CA0005F904F903F902F900895FC010590615008
:100CB00070400110D8F7809590958E0F9F1F089572
:100CC000FC016150704001900110D8F7809590951B
:100CD0008E0F9F1F08950F931F93CF93DF93FB01F8
:100CE000238121FD03C08FEF9FEF2CC022FF16C090
:100CF00046815781248135814217530744F4A081EE
:100D0000B1819D012F5F3F4F318320838C932681DA
:100D100037812F5F3F4F3783268314C08B01EC014F
:100D2000FB010084F185E02D0995892BE1F6D801BE
:100D300016968D919C911797019617969C938E937A
:100D40001697CE01DF91CF911F910F910895FA016F
:100D5000AA27283051F1203181F1E8946F936E7FFA
:100D60006E5F7F4F8F4F9F4FAF4FB1E03ED0B4E0EB
:100D70003CD0670F781F891F9A1FA11D680F791F2C
:100D80008A1F911DA11D6A0F711D811D911DA11D3D
:100D900020D009F468943F912AE0269F112430194D
:100DA000305D3193DEF6CF010895462F4770405DE8
:100DB0004193B3E00FD0C9F7F6CF462F4F70405D97
:100DC0004A3318F0495D31FD4052419302D0A9F7F2
:100DD000EACFB4E0A6959795879577956795BA95EC
:100DE000C9F700976105710508959B01AC010A2EB2
:100DF00006945795479537952795BA95C9F7620F89
:0E0E0000731F841F951FA01D0895F894FFCF47
:0E0E0E0025642E253033642056000D0A0000A6
:00000001FF
