:1000000049C000002CC1000055C0000053C00000D2
:1000100051C000004FC000004DC000004BC00000A8
:1000200049C0000047C0000045C0000043C00000B8
:1000300041C000003FC000003DC000003BC00000C8
:100040009EC0000037C0000035C0000033C0000073
:1000500031C000002FC000002DC000002BC00000E8
:1000600029C0000027C0000025C0000023C00000F8
:1000700021C000001FC000001DC000001BC0000008
:1000800019C0000017C0000015C0000013C0000018
:1000900011C0000011241FBECFEFD0E1DEBFCDBFE5
:1000A00021E0A0E0B1E001C01D92A830B207E1F765
:1000B0001ED0FCC0A5CF8EE080BB81BB14B881E010
:1000C00085B99FEF91B912B81AB88BB908958DE030
:1000D00084BD8DE487BDEEE6F0E0808182608083A0
:1000E000089582E08093690081E08DBB0895E3DF8D
:1000F000EEDFF7DF789480910501882309F11899E4
:100100000AC080910101811106C082B191E0892766
:1001100082B990930101189B06C080910101813042
:1001200011F41092010180910001803518F4865F6E
:100130008093000191B381E0892781BB1092050172
:1001400080910401882331F091B382E0892781BB3B
:100150001092040180910301882331F091B384E06F
:10016000892781BB1092030180910201882319F233
:1001700091B388E0892781BB10920201BCCF1F9206
:100180000F920FB60F9211242F933F934F935F93CB
:100190006F937F938F939F93AF93BF93409106018B
:1001A000509107014F5F5F4F509307014093060145
:1001B00081E0809305019A01ADECBCEC68D0969586
:1001C000879596958795969587959C01220F331F65
:1001D000880F991F880F991F880F991F820F931FEF
:1001E0004817590719F481E0809304019A01369564
:1001F0002795ABE7B4E14BD09695879562E3689F6E
:100200009001699F300D11244217530719F481E0C2
:10021000809303019A013695279536952795ABE78C
:10022000B4E135D09695879564E6689F9001699F03
:10023000300D11244217530719F481E08093020115
:10024000BF91AF919F918F917F916F915F914F91EE
:100250003F912F910F900FBE0F901F9018951F92F6
:100260000F920FB60F9211248F939F9380910001EC
:10027000803531F492B182E0892782B91092000171
:100280009F918F910F900FBE0F901F901895A29F76
:10029000B001B39FC001A39F700D811D1124911D5A
:1002A000B29F700D811D1124911D0895F894FFCF08
:00000001FF
