S00C00006779616B2E737265636C
S113000049C000003CC1000055C0000053C00000BE
S113001051C000004FC000004DC000004BC00000A4
S113002049C0000047C0000045C0000043C00000B4
S113003041C000003FC000003DC000003BC00000C4
S1130040AEC0000037C0000035C0000033C000005F
S113005031C000002FC000002DC000002BC00000E4
S113006029C0000021C1000025C0000023C00000F9
S113007021C000001FC000001DC000001BC0000004
S113008019C0000017C0000015C0000013C0000014
S113009011C0000011241FBECFEFD0E1DEBFCDBFE1
S11300A021E0A0E0B1E001C01D92AA30B207E1F75F
S11300B022D01FC1A5CF8FEF81B98EE080BB1AB8C3
S11300C081E08BB914B885B908958DE084BD8DE4C1
S11300D087BD82E080936E00089582E0809369007A
S11300E081E08DBB089510927C008FEC80937A00A0
S11300F010927B000895DFDFE8DFEFDFF4DF789410
S1130100809107018823E9F018990AC080910201BF
S1130110811106C082B191E0892782B990930201CE
S1130120189B06C080910201813011F410920201E3
S113013080910301803518F4865F80930301109247
S11301400701809106018823A1F0EAE7F0E08081AD
S11301508064808380910001909101019695879538
S11301609695879582B991B382E0892781BB1092D5
S1130170060180910501882331F091B384E0892739
S113018081BB1092050180910401882309F4B8CF42
S113019091B388E0892781BB10920401B1CF1F92EB
S11301A00F920FB60F9211242F933F934F935F93A7
S11301B06F937F938F939F93AF93BF934091080165
S11301C0509109014F5F5F4F50930901409308011B
S11301D081E0809307019A01ADECBCEC7BD096954D
S11301E0879596958795969587959C01220F331F41
S11301F0880F991F880F991F880F991F820F931FCB
S11302004817590719F481E0809306019A0136953D
S11302102795ABE7B4E15ED09695879562E3689F36
S11302209001699F300D11244217530719F481E09E
S1130230809305019A013695279536952795ABE766
S1130240B4E148D09695879564E6689F9001699FCC
S1130250300D11244217530719F481E080930401EF
S1130260BF91AF919F918F917F916F915F914F91CA
S11302703F912F910F900FBE0F901F9018951F92D2
S11302800F920FB60F9211248F9380910301803542
S113029029F482B1809582B9109203018F910F9055
S11302A00FBE0F901F9018951F920F920FB60F92CA
S11302B011248F939F93809178009091790090936B
S11302C00101809300019F918F910F900FBE0F90B9
S11302D01F901895A29FB001B39FC001A39F700DFA
S11302E0811D1124911DB29F700D811D1124911D3A
S10902F00895F894FFCF0D
S9030000FC
