S00C00006779616B2E737265636C
S113000049C0000057C0000055C0000053C00000A4
S113001051C000004FC000004DC000004BC00000A4
S113002049C0000047C0000045C0000043C00000B4
S113003041C000003FC000003DC000003BC00000C4
S113004073C0000037C0000035C0000033C000009A
S113005031C000002FC000002DC000002BC00000E4
S113006029C0000027C0000025C0000023C00000F4
S113007021C000001FC000001DC000001BC0000004
S113008019C0000017C0000015C0000013C0000014
S113009011C0000011241FBECFEFD0E1DEBFCDBFE1
S11300A021E0A0E0B1E001C01D92A630B207E1F763
S11300B00FD0B9C0A5CF8FEF81B98FE080BB089571
S11300C08DE084BD8DE487BD82E080936E00089549
S11300D0F2DFF6DF789480910301882331F091B345
S11300E081E0892781BB109203018091020188235A
S11300F031F091B382E0892781BB10920201809193
S11301000101882331F091B384E0892781BB1092E7
S11301100101809100018823F1F291B388E08927DD
S113012081BB10920001D7CF1F920F920FB60F928E
S113013011242F933F934F935F936F937F938F93E8
S11301409F93AF93BF9340910401509105014F5F7A
S11301505F4F509305014093040181E080930301B4
S11301609A01ADECBCEC50D0969587959695879501
S1130170969587959C01220F331F880F991F880F2E
S1130180991F880F991F820F931F4817590719F455
S113019081E0809302019A0136952795ABE7B4E19B
S11301A033D09695879562E3689F9001699F300DDF
S11301B011244217530719F481E0809301019A0135
S11301C03695279536952795ABE7B4E11DD09695DE
S11301D0879564E6689F9001699F300D112442174A
S11301E0530719F481E080930001BF91AF919F916F
S11301F08F917F916F915F914F913F912F910F90CC
S11302000FBE0F901F901895A29FB001B39FC0011D
S1130210A39F700D811D1124911DB29F700D811D2E
S10D02201124911D0895F894FFCFF6
S9030000FC
