:1000000049C0000028C1000055C0000053C00000D6
:1000100051C000004FC000004DC000004BC00000A8
:1000200049C0000047C0000045C0000043C00000B8
:1000300041C000003FC000003DC000003BC00000C8
:100040009AC0000037C0000035C0000033C0000077
:1000500031C000002FC000002DC000002BC00000E8
:1000600029C0000027C0000025C0000023C00000F8
:1000700021C000001FC000001DC000001BC0000008
:1000800019C0000017C0000015C0000013C0000018
:1000900011C0000011241FBECFEFD0E1DEBFCDBFE5
:1000A00021E0A0E0B1E001C01D92A830B207E1F765
:1000B0001AD0F5C0A5CF8FEF81B98FE080BB1AB8F9
:1000C00081E08BB914B885B908958DE084BD8DE4C5
:1000D00087BD82E080936E00089582E0809369007E
:1000E00081E08DBB0895E7DFF0DFF7DF7894809142
:1000F0000501882309F118990AC080910001811136
:1001000006C082B191E0892782B990930001189BC3
:1001100006C080910001813011F41092000180919D
:100120000101803518F4865F8093010191B381E06D
:10013000892781BB1092050180910401882331F049
:1001400091B382E0892781BB109204018091030161
:10015000882331F091B384E0892781BB1092030199
:1001600080910201882319F291B388E0892781BB2D
:1001700010920201BCCF1F920F920FB60F92112462
:100180002F933F934F935F936F937F938F939F939F
:10019000AF93BF9340910601509107014F5F5F4FAE
:1001A000509307014093060181E0809305019A0175
:1001B000ADECBCEC65D09695879596958795969510
:1001C00087959C01220F331F880F991F880F991F55
:1001D000880F991F820F931F4817590719F481E060
:1001E000809304019A0136952795ABE7B4E148D096
:1001F0009695879562E3689F9001699F300D112461
:100200004217530719F481E0809303019A01369550
:10021000279536952795ABE7B4E132D0969587952B
:1002200064E6689F9001699F300D112442175307BF
:1002300019F481E080930201BF91AF919F918F915A
:100240007F916F915F914F913F912F910F900FBED2
:100250000F901F9018951F920F920FB60F921124B6
:100260008F9380910101803529F482B1809582B904
:10027000109201018F910F900FBE0F901F90189553
:10028000A29FB001B39FC001A39F700D811D1124D7
:10029000911DB29F700D811D1124911D0895F89438
:0202A000FFCF8E
:00000001FF
